{
  "transactions": [
    {
      "hash": null,
      "transactionType": "CREATE",
      "contractName": "Target",
      "contractAddress": "0xbd7a929f391f6101f2f59c4461298b9987dc36fe",
      "function": null,
      "arguments": null,
      "transaction": {
        "from": "0x248906bf539e8f16fbd14c001f7bd3d712f95d3e",
        "gas": "0x1eba0",
        "value": "0x0",
        "input": "0x608060405234801561001057600080fd5b5060c98061001f6000396000f3fe6080604052348015600f57600080fd5b506004361060325760003560e01c80631e81ccb21460375780635c36b186146051575b600080fd5b603f60005481565b60405190815260200160405180910390f35b60576059565b005b600080549080606683606d565b9190505550565b600060018201608c57634e487b7160e01b600052601160045260246000fd5b506001019056fea26469706673582212208a3f38e02e0cf8ccfd86ea9258a4c99a6d54d68dae7b76fee98b2e80904a790564736f6c63430008170033",
        "nonce": "0x3d5",
        "chainId": "0x9e55c"
      },
      "additionalContracts": [],
      "isFixedGasLimit": false
    },
    {
      "hash": null,
      "transactionType": "CALL",
      "contractName": null,
      "contractAddress": "0x9fd181236da8c890bd5007b44b80e395e130c57d",
      "function": "handleOps((address,uint256,bytes,bytes,bytes32,uint256,bytes32,bytes,bytes)[],address)",
      "arguments": [
        "[(0x3e59E283E20190070011908F518174bD83b3bF02, 0, 0x5589a0e344688976e473fd56bae94411d9d56f675fbfb9cf000000000000000000000000e0997790d5a3898831ee75afe6729dd6bee57516000000000000000000000000000000000000000000000000000000006a4584c4, 0xb61d27f6000000000000000000000000bd7a929f391f6101f2f59c4461298b9987dc36fe0000000000000000000000000000000000000000000000000000000000000000000000000000000000000000000000000000000000000000000000000000006000000000000000000000000000000000000000000000000000000000000000045c36b18600000000000000000000000000000000000000000000000000000000, 0x000000000000000000000000002dc6c0000000000000000000000000000f4240, 100000, 0x0000000000000000000000000000000000000000000000000000000000000000, 0xafed236702ef6f90b31560fab884433057764b990000000000000000000000000007a120000000000000000000000000000186a0000000000000000000000000000000000000000000000000000000006a4592d600000000000000000000000000000000000000000000000000000000000000003c9ebe88d20e9bc0cfe72e1a7963d969af0712e93ce2582b4da822e2cfe5acd31e2f6eb9d27f25af2a5cbe882496a0d35ba5a6b9ca5f0a051b9f8cab940584c71b, 0xb09b1ed4b3d46a4e4a12e260981c44dc807e84de81cda11fcec1b3bf32ad13c957491e38443d2031ce06d891a82519abf8663b599daed46132be452d9e69cca11c)]",
        "0x248906Bf539e8f16FbD14c001f7Bd3D712f95D3E"
      ],
      "transaction": {
        "from": "0x248906bf539e8f16fbd14c001f7bd3d712f95d3e",
        "to": "0x9fd181236da8c890bd5007b44b80e395e130c57d",
        "gas": "0x64ac4",
        "value": "0x0",
        "input": "0x765e827f0000000000000000000000000000000000000000000000000000000000000040000000000000000000000000248906bf539e8f16fbd14c001f7bd3d712f95d3e000000000000000000000000000000000000000000000000000000000000000100000000000000000000000000000000000000000000000000000000000000200000000000000000000000003e59e283e20190070011908f518174bd83b3bf020000000000000000000000000000000000000000000000000000000000000000000000000000000000000000000000000000000000000000000000000000012000000000000000000000000000000000000000000000000000000000000001a0000000000000000000000000002dc6c0000000000000000000000000000f424000000000000000000000000000000000000000000000000000000000000186a000000000000000000000000000000000000000000000000000000000000000000000000000000000000000000000000000000000000000000000000000000280000000000000000000000000000000000000000000000000000000000000036000000000000000000000000000000000000000000000000000000000000000585589a0e344688976e473fd56bae94411d9d56f675fbfb9cf000000000000000000000000e0997790d5a3898831ee75afe6729dd6bee57516000000000000000000000000000000000000000000000000000000006a4584c4000000000000000000000000000000000000000000000000000000000000000000000000000000a4b61d27f6000000000000000000000000bd7a929f391f6101f2f59c4461298b9987dc36fe0000000000000000000000000000000000000000000000000000000000000000000000000000000000000000000000000000000000000000000000000000006000000000000000000000000000000000000000000000000000000000000000045c36b186000000000000000000000000000000000000000000000000000000000000000000000000000000000000000000000000000000000000000000000000000000000000000000000000000000000000000000000000000000b5afed236702ef6f90b31560fab884433057764b990000000000000000000000000007a120000000000000000000000000000186a0000000000000000000000000000000000000000000000000000000006a4592d600000000000000000000000000000000000000000000000000000000000000003c9ebe88d20e9bc0cfe72e1a7963d969af0712e93ce2582b4da822e2cfe5acd31e2f6eb9d27f25af2a5cbe882496a0d35ba5a6b9ca5f0a051b9f8cab940584c71b00000000000000000000000000000000000000000000000000000000000000000000000000000000000041b09b1ed4b3d46a4e4a12e260981c44dc807e84de81cda11fcec1b3bf32ad13c957491e38443d2031ce06d891a82519abf8663b599daed46132be452d9e69cca11c00000000000000000000000000000000000000000000000000000000000000",
        "nonce": "0x3d6",
        "chainId": "0x9e55c"
      },
      "additionalContracts": [
        {
          "transactionType": "CREATE2",
          "contractName": "ERC1967Proxy",
          "address": "0x3e59e283e20190070011908f518174bd83b3bf02",
          "initCode": "0x608060405260405161040a38038061040a83398101604081905261002291610268565b61002c8282610033565b5050610352565b61003c82610092565b6040516001600160a01b038316907fbc7cd75a20ee27fd9adebab32041f755214dbc6bffa90cc0225b39da2e5c2d3b90600090a280511561008657610081828261010e565b505050565b61008e610185565b5050565b806001600160a01b03163b6000036100cd57604051634c9c8ce360e01b81526001600160a01b03821660048201526024015b60405180910390fd5b7f360894a13ba1a3210667c828492db98dca3e2076cc3735a920a3ca505d382bbc80546001600160a01b0319166001600160a01b0392909216919091179055565b6060600080846001600160a01b03168460405161012b9190610336565b600060405180830381855af49150503d8060008114610166576040519150601f19603f3d011682016040523d82523d6000602084013e61016b565b606091505b50909250905061017c8583836101a6565b95945050505050565b34156101a45760405163b398979f60e01b815260040160405180910390fd5b565b6060826101bb576101b682610205565b6101fe565b81511580156101d257506001600160a01b0384163b155b156101fb57604051639996b31560e01b81526001600160a01b03851660048201526024016100c4565b50805b9392505050565b8051156102155780518082602001fd5b604051630a12f52160e11b815260040160405180910390fd5b634e487b7160e01b600052604160045260246000fd5b60005b8381101561025f578181015183820152602001610247565b50506000910152565b6000806040838503121561027b57600080fd5b82516001600160a01b038116811461029257600080fd5b60208401519092506001600160401b03808211156102af57600080fd5b818501915085601f8301126102c357600080fd5b8151818111156102d5576102d561022e565b604051601f8201601f19908116603f011681019083821181831017156102fd576102fd61022e565b8160405282815288602084870101111561031657600080fd5b610327836020830160208801610244565b80955050505050509250929050565b60008251610348818460208701610244565b9190910192915050565b60aa806103606000396000f3fe6080604052600a600c565b005b60186014601a565b6051565b565b6000604c7f360894a13ba1a3210667c828492db98dca3e2076cc3735a920a3ca505d382bbc546001600160a01b031690565b905090565b3660008037600080366000845af43d6000803e808015606f573d6000f35b3d6000fdfea2646970667358221220c85bf2e8f2e39244ce8ff712cc6d9b1943e7b55f87756ead15add849a304114464736f6c6343000817003300000000000000000000000016c51443f0ea889dcde44bf5d06140519748cd5800000000000000000000000000000000000000000000000000000000000000400000000000000000000000000000000000000000000000000000000000000024c4d66de8000000000000000000000000e0997790d5a3898831ee75afe6729dd6bee5751600000000000000000000000000000000000000000000000000000000"
        }
      ],
      "isFixedGasLimit": false
    }
  ],
  "receipts": [],
  "libraries": [],
  "pending": [],
  "returns": {},
  "timestamp": 1782940890590,
  "chain": 648540,
  "commit": "2f18c9f"
}